{
  "_format": "hh-sol-artifact-1",
  "contractName": "chainlinkOptions",
  "sourceName": "contracts/chainlinkOptions.sol",
  "abi": [
    {
      "inputs": [],
      "stateMutability": "nonpayable",
      "type": "constructor"
    },
    {
      "anonymous": false,
      "inputs": [
        {
          "indexed": false,
          "internalType": "string",
          "name": "token",
          "type": "string"
        },
        {
          "indexed": false,
          "internalType": "uint256",
          "name": "strike",
          "type": "uint256"
        },
        {
          "indexed": false,
          "internalType": "uint256",
          "name": "premium",
          "type": "uint256"
        },
        {
          "indexed": false,
          "internalType": "uint256",
          "name": "expiry",
          "type": "uint256"
        },
        {
          "indexed": false,
          "internalType": "uint256",
          "name": "tknAmt",
          "type": "uint256"
        }
      ],
      "name": "OptionWritten",
      "type": "event"
    },
    {
      "inputs": [
        {
          "internalType": "string",
          "name": "token",
          "type": "string"
        },
        {
          "internalType": "uint256",
          "name": "ID",
          "type": "uint256"
        }
      ],
      "name": "buyOption",
      "outputs": [],
      "stateMutability": "payable",
      "type": "function"
    },
    {
      "inputs": [
        {
          "internalType": "string",
          "name": "token",
          "type": "string"
        },
        {
          "internalType": "uint256",
          "name": "ID",
          "type": "uint256"
        }
      ],
      "name": "cancelOption",
      "outputs": [],
      "stateMutability": "payable",
      "type": "function"
    },
    {
      "inputs": [
        {
          "internalType": "uint256",
          "name": "",
          "type": "uint256"
        }
      ],
      "name": "ethOpts",
      "outputs": [
        {
          "internalType": "uint256",
          "name": "strike",
          "type": "uint256"
        },
        {
          "internalType": "uint256",
          "name": "premium",
          "type": "uint256"
        },
        {
          "internalType": "uint256",
          "name": "expiry",
          "type": "uint256"
        },
        {
          "internalType": "uint256",
          "name": "amount",
          "type": "uint256"
        },
        {
          "internalType": "bool",
          "name": "exercised",
          "type": "bool"
        },
        {
          "internalType": "bool",
          "name": "canceled",
          "type": "bool"
        },
        {
          "internalType": "uint256",
          "name": "id",
          "type": "uint256"
        },
        {
          "internalType": "uint256",
          "name": "latestCost",
          "type": "uint256"
        },
        {
          "internalType": "address payable",
          "name": "writer",
          "type": "address"
        },
        {
          "internalType": "address payable",
          "name": "buyer",
          "type": "address"
        }
      ],
      "stateMutability": "view",
      "type": "function"
    },
    {
      "inputs": [
        {
          "internalType": "string",
          "name": "token",
          "type": "string"
        },
        {
          "internalType": "uint256",
          "name": "ID",
          "type": "uint256"
        }
      ],
      "name": "exercise",
      "outputs": [],
      "stateMutability": "payable",
      "type": "function"
    },
    {
      "inputs": [],
      "name": "getEthPrice",
      "outputs": [
        {
          "internalType": "uint256",
          "name": "",
          "type": "uint256"
        }
      ],
      "stateMutability": "view",
      "type": "function"
    },
    {
      "inputs": [],
      "name": "getLinkPrice",
      "outputs": [
        {
          "internalType": "uint256",
          "name": "",
          "type": "uint256"
        }
      ],
      "stateMutability": "view",
      "type": "function"
    },
    {
      "inputs": [
        {
          "internalType": "uint256",
          "name": "",
          "type": "uint256"
        }
      ],
      "name": "linkOpts",
      "outputs": [
        {
          "internalType": "uint256",
          "name": "strike",
          "type": "uint256"
        },
        {
          "internalType": "uint256",
          "name": "premium",
          "type": "uint256"
        },
        {
          "internalType": "uint256",
          "name": "expiry",
          "type": "uint256"
        },
        {
          "internalType": "uint256",
          "name": "amount",
          "type": "uint256"
        },
        {
          "internalType": "bool",
          "name": "exercised",
          "type": "bool"
        },
        {
          "internalType": "bool",
          "name": "canceled",
          "type": "bool"
        },
        {
          "internalType": "uint256",
          "name": "id",
          "type": "uint256"
        },
        {
          "internalType": "uint256",
          "name": "latestCost",
          "type": "uint256"
        },
        {
          "internalType": "address payable",
          "name": "writer",
          "type": "address"
        },
        {
          "internalType": "address payable",
          "name": "buyer",
          "type": "address"
        }
      ],
      "stateMutability": "view",
      "type": "function"
    },
    {
      "inputs": [
        {
          "internalType": "string",
          "name": "token",
          "type": "string"
        },
        {
          "internalType": "uint256",
          "name": "ID",
          "type": "uint256"
        }
      ],
      "name": "retrieveExpiredFunds",
      "outputs": [],
      "stateMutability": "payable",
      "type": "function"
    },
    {
      "inputs": [
        {
          "internalType": "string",
          "name": "token",
          "type": "string"
        },
        {
          "internalType": "uint256",
          "name": "ID",
          "type": "uint256"
        }
      ],
      "name": "updateExerciseCost",
      "outputs": [],
      "stateMutability": "nonpayable",
      "type": "function"
    },
    {
      "inputs": [
        {
          "internalType": "string",
          "name": "token",
          "type": "string"
        },
        {
          "internalType": "uint256",
          "name": "strike",
          "type": "uint256"
        },
        {
          "internalType": "uint256",
          "name": "premium",
          "type": "uint256"
        },
        {
          "internalType": "uint256",
          "name": "expiry",
          "type": "uint256"
        },
        {
          "internalType": "uint256",
          "name": "tknAmt",
          "type": "uint256"
        }
      ],
      "name": "writeOption",
      "outputs": [],
      "stateMutability": "payable",
      "type": "function"
    }
  ],
  "bytecode": "0x608060405260405160200180807f455448000000000000000000000000000000000000000000000000000000000081525060030190506040516020818303038152906040528051906020012060055560405160200180807f4c494e4b000000000000000000000000000000000000000000000000000000008152506004019050604051602081830303815290604052805190602001206006553480156100a457600080fd5b50739326bfa02add2366b30bacb125260af6410313316000806101000a81548173ffffffffffffffffffffffffffffffffffffffff021916908373ffffffffffffffffffffffffffffffffffffffff16021790555073396c5e36dd0a0f5a5d33dae44368d4193f69a1f0600160006101000a81548173ffffffffffffffffffffffffffffffffffffffff021916908373ffffffffffffffffffffffffffffffffffffffff16021790555073a36085f69e2889c224210f603d836748e7dc0088600260006101000a81548173ffffffffffffffffffffffffffffffffffffffff021916908373ffffffffffffffffffffffffffffffffffffffff16021790555030600760006101000a81548173ffffffffffffffffffffffffffffffffffffffff021916908373ffffffffffffffffffffffffffffffffffffffff160217905550613824806101f36000396000f3fe6080604052600436106100915760003560e01c806367c9b0171161005957806367c9b01714610429578063997164bd14610454578063a5da849514610519578063a8e2b9cd146105de578063bddd674c146106a357610091565b80631071a8d6146100965780631103f0c0146101795780632dddd49c146102675780634f011356146102925780636275c9e614610364575b600080fd5b610177600480360360a08110156100ac57600080fd5b81019080803590602001906401000000008111156100c957600080fd5b8201836020820111156100db57600080fd5b803590602001918460018302840111640100000000831117156100fd57600080fd5b91908080601f016020809104026020016040519081016040528093929190818152602001838380828437600081840152601f19601f82011690508083019250505050505050919291929080359060200190929190803590602001909291908035906020019092919080359060200190929190505050610791565b005b34801561018557600080fd5b506101b26004803603602081101561019c57600080fd5b8101908080359060200190929190505050610f41565b604051808b81526020018a815260200189815260200188815260200187151515158152602001861515151581526020018581526020018481526020018373ffffffffffffffffffffffffffffffffffffffff1673ffffffffffffffffffffffffffffffffffffffff1681526020018273ffffffffffffffffffffffffffffffffffffffff1673ffffffffffffffffffffffffffffffffffffffff1681526020019a505050505050505050505060405180910390f35b34801561027357600080fd5b5061027c610ffc565b6040518082815260200191505060405180910390f35b34801561029e57600080fd5b50610362600480360360408110156102b557600080fd5b81019080803590602001906401000000008111156102d257600080fd5b8201836020820111156102e457600080fd5b8035906020019184600183028401116401000000008311171561030657600080fd5b91908080601f016020809104026020016040519081016040528093929190818152602001838380828437600081840152601f19601f8201169050808301925050505050505091929192908035906020019092919050505061115b565b005b6104276004803603604081101561037a57600080fd5b810190808035906020019064010000000081111561039757600080fd5b8201836020820111156103a957600080fd5b803590602001918460018302840111640100000000831117156103cb57600080fd5b91908080601f016020809104026020016040519081016040528093929190818152602001838380828437600081840152601f19601f8201169050808301925050505050505091929192908035906020019092919050505061138c565b005b34801561043557600080fd5b5061043e611af4565b6040518082815260200191505060405180910390f35b6105176004803603604081101561046a57600080fd5b810190808035906020019064010000000081111561048757600080fd5b82018360208201111561049957600080fd5b803590602001918460018302840111640100000000831117156104bb57600080fd5b91908080601f016020809104026020016040519081016040528093929190818152602001838380828437600081840152601f19601f82011690508083019250505050505050919291929080359060200190929190505050611c52565b005b6105dc6004803603604081101561052f57600080fd5b810190808035906020019064010000000081111561054c57600080fd5b82018360208201111561055e57600080fd5b8035906020019184600183028401116401000000008311171561058057600080fd5b91908080601f016020809104026020016040519081016040528093929190818152602001838380828437600081840152601f19601f820116905080830192505050505050509192919290803590602001909291905050506126f4565b005b6106a1600480360360408110156105f457600080fd5b810190808035906020019064010000000081111561061157600080fd5b82018360208201111561062357600080fd5b8035906020019184600183028401116401000000008311171561064557600080fd5b91908080601f016020809104026020016040519081016040528093929190818152602001838380828437600081840152601f19601f82011690508083019250505050505050919291929080359060200190929190505050612cdf565b005b3480156106af57600080fd5b506106dc600480360360208110156106c657600080fd5b81019080803590602001909291905050506134af565b604051808b81526020018a815260200189815260200188815260200187151515158152602001861515151581526020018581526020018481526020018373ffffffffffffffffffffffffffffffffffffffff1673ffffffffffffffffffffffffffffffffffffffff1681526020018273ffffffffffffffffffffffffffffffffffffffff1673ffffffffffffffffffffffffffffffffffffffff1681526020019a505050505050505050505060405180910390f35b6000856040516020018082805190602001908083835b602083106107ca57805182526020820191506020810190506020830392506107a7565b6001836020036101000a038019825116818451168082178552505050505050905001915050604051602081830303815290604052805190602001209050600554811480610818575060065481145b61086d576040517f08c379a00000000000000000000000000000000000000000000000000000000081526004018080602001828103825260268152602001806137806026913960400191505060405180910390fd5b61087561356a565b600554811415610af3578134146108f4576040517f08c379a00000000000000000000000000000000000000000000000000000000081526004018080602001828103825260208152602001807f496e636f727265637420616d6f756e74206f662045544820737570706c69656481525060200191505060405180910390fd5b60006109346109136402540be40060035461358890919063ffffffff16565b610926858961358890919063ffffffff16565b61360e90919063ffffffff16565b9050600860405180610140016040528088815260200187815260200186815260200185815260200160001515815260200160001515815260200160088054905081526020018381526020013373ffffffffffffffffffffffffffffffffffffffff168152602001600073ffffffffffffffffffffffffffffffffffffffff1681525090806001815401808255809150506001900390600052602060002090600902016000909190919091506000820151816000015560208201518160010155604082015181600201556060820151816003015560808201518160040160006101000a81548160ff02191690831515021790555060a08201518160040160016101000a81548160ff02191690831515021790555060c0820151816005015560e082015181600601556101008201518160070160006101000a81548173ffffffffffffffffffffffffffffffffffffffff021916908373ffffffffffffffffffffffffffffffffffffffff1602179055506101208201518160080160006101000a81548173ffffffffffffffffffffffffffffffffffffffff021916908373ffffffffffffffffffffffffffffffffffffffff160217905550505050610e7d565b600260009054906101000a900473ffffffffffffffffffffffffffffffffffffffff1673ffffffffffffffffffffffffffffffffffffffff166323b872dd33600760009054906101000a900473ffffffffffffffffffffffffffffffffffffffff16856040518463ffffffff1660e01b8152600401808473ffffffffffffffffffffffffffffffffffffffff1673ffffffffffffffffffffffffffffffffffffffff1681526020018373ffffffffffffffffffffffffffffffffffffffff1673ffffffffffffffffffffffffffffffffffffffff1681526020018281526020019350505050602060405180830381600087803b158015610bf257600080fd5b505af1158015610c06573d6000803e3d6000fd5b505050506040513d6020811015610c1c57600080fd5b8101908080519060200190929190505050610c82576040517f08c379a00000000000000000000000000000000000000000000000000000000081526004018080602001828103825260218152602001806136ed6021913960400191505060405180910390fd5b6000610cc2610ca16402540be40060045461358890919063ffffffff16565b610cb4858961358890919063ffffffff16565b61360e90919063ffffffff16565b9050600960405180610140016040528088815260200187815260200186815260200185815260200160001515815260200160001515815260200160098054905081526020018381526020013373ffffffffffffffffffffffffffffffffffffffff168152602001600073ffffffffffffffffffffffffffffffffffffffff1681525090806001815401808255809150506001900390600052602060002090600902016000909190919091506000820151816000015560208201518160010155604082015181600201556060820151816003015560808201518160040160006101000a81548160ff02191690831515021790555060a08201518160040160016101000a81548160ff02191690831515021790555060c0820151816005015560e082015181600601556101008201518160070160006101000a81548173ffffffffffffffffffffffffffffffffffffffff021916908373ffffffffffffffffffffffffffffffffffffffff1602179055506101208201518160080160006101000a81548173ffffffffffffffffffffffffffffffffffffffff021916908373ffffffffffffffffffffffffffffffffffffffff1602179055505050505b7fbdf8a60a72b7b052f549ff89d6a625a6a291a3bd99f9cd9d3ca71007b07ec1f586868686866040518080602001868152602001858152602001848152602001838152602001828103825287818151815260200191508051906020019080838360005b83811015610efb578082015181840152602081019050610ee0565b50505050905090810190601f168015610f285780820380516001836020036101000a031916815260200191505b50965050505050505060405180910390a1505050505050565b60088181548110610f4e57fe5b90600052602060002090600902016000915090508060000154908060010154908060020154908060030154908060040160009054906101000a900460ff16908060040160019054906101000a900460ff16908060050154908060060154908060070160009054906101000a900473ffffffffffffffffffffffffffffffffffffffff16908060080160009054906101000a900473ffffffffffffffffffffffffffffffffffffffff1690508a565b600080600080600080600160009054906101000a900473ffffffffffffffffffffffffffffffffffffffff1673ffffffffffffffffffffffffffffffffffffffff1663feaf968c6040518163ffffffff1660e01b815260040160a06040518083038186803b15801561106d57600080fd5b505afa158015611081573d6000803e3d6000fd5b505050506040513d60a081101561109757600080fd5b8101908080519060200190929190805190602001909291908051906020019092919080519060200190929190805190602001909291905050509450945094509450945060008211611150576040517f08c379a00000000000000000000000000000000000000000000000000000000081526004018080602001828103825260128152602001807f526f756e64206e6f7420636f6d706c657465000000000000000000000000000081525060200191505060405180910390fd5b839550505050505090565b6000826040516020018082805190602001908083835b602083106111945780518252602082019150602081019050602083039250611171565b6001836020036101000a0380198251168184511680821785525050505050509050019150506040516020818303038152906040528051906020012090506005548114806111e2575060065481145b611237576040517f08c379a00000000000000000000000000000000000000000000000000000000081526004018080602001828103825260268152602001806137806026913960400191505060405180910390fd5b61123f61356a565b6005548114156112ea576112c36112666402540be40060035461358890919063ffffffff16565b6112b56008858154811061127657fe5b9060005260206000209060090201600301546008868154811061129557fe5b90600052602060002090600902016000015461358890919063ffffffff16565b61360e90919063ffffffff16565b600883815481106112d057fe5b906000526020600020906009020160060181905550611387565b6113646113076402540be40060045461358890919063ffffffff16565b6113566009858154811061131757fe5b9060005260206000209060090201600301546009868154811061133657fe5b90600052602060002090600902016000015461358890919063ffffffff16565b61360e90919063ffffffff16565b6009838154811061137157fe5b9060005260206000209060090201600601819055505b505050565b6000826040516020018082805190602001908083835b602083106113c557805182526020820191506020810190506020830392506113a2565b6001836020036101000a038019825116818451168082178552505050505050905001915050604051602081830303815290604052805190602001209050600554811480611413575060065481145b611468576040517f08c379a00000000000000000000000000000000000000000000000000000000081526004018080602001828103825260268152602001806137806026913960400191505060405180910390fd5b600554811415611711576008828154811061147f57fe5b906000526020600020906009020160070160009054906101000a900473ffffffffffffffffffffffffffffffffffffffff1673ffffffffffffffffffffffffffffffffffffffff163373ffffffffffffffffffffffffffffffffffffffff1614611551576040517f08c379a000000000000000000000000000000000000000000000000000000000815260040180806020018281038252601d8152602001807f596f7520646964206e6f742077726974652074686973206f7074696f6e00000081525060200191505060405180910390fd5b426008838154811061155f57fe5b906000526020600020906009020160020154111580156115a857506008828154811061158757fe5b906000526020600020906009020160040160009054906101000a900460ff16155b80156115dd5750600882815481106115bc57fe5b906000526020600020906009020160040160019054906101000a900460ff16155b611632576040517f08c379a00000000000000000000000000000000000000000000000000000000081526004018080602001828103825260288152602001806137a66028913960400191505060405180910390fd5b6008828154811061163f57fe5b906000526020600020906009020160070160009054906101000a900473ffffffffffffffffffffffffffffffffffffffff1673ffffffffffffffffffffffffffffffffffffffff166108fc6008848154811061169757fe5b9060005260206000209060090201600301549081150290604051600060405180830381858888f193505050501580156116d4573d6000803e3d6000fd5b506001600883815481106116e457fe5b906000526020600020906009020160040160016101000a81548160ff021916908315150217905550611aef565b6009828154811061171e57fe5b906000526020600020906009020160070160009054906101000a900473ffffffffffffffffffffffffffffffffffffffff1673ffffffffffffffffffffffffffffffffffffffff163373ffffffffffffffffffffffffffffffffffffffff16146117f0576040517f08c379a000000000000000000000000000000000000000000000000000000000815260040180806020018281038252601d8152602001807f596f7520646964206e6f742077726974652074686973206f7074696f6e00000081525060200191505060405180910390fd5b42600983815481106117fe57fe5b9060005260206000209060090201600201541115801561184757506009828154811061182657fe5b906000526020600020906009020160040160009054906101000a900460ff16155b801561187c57506009828154811061185b57fe5b906000526020600020906009020160040160019054906101000a900460ff16155b6118d1576040517f08c379a00000000000000000000000000000000000000000000000000000000081526004018080602001828103825260288152602001806137a66028913960400191505060405180910390fd5b600260009054906101000a900473ffffffffffffffffffffffffffffffffffffffff1673ffffffffffffffffffffffffffffffffffffffff166323b872dd306009858154811061191d57fe5b906000526020600020906009020160070160009054906101000a900473ffffffffffffffffffffffffffffffffffffffff166009868154811061195c57fe5b9060005260206000209060090201600301546040518463ffffffff1660e01b8152600401808473ffffffffffffffffffffffffffffffffffffffff1673ffffffffffffffffffffffffffffffffffffffff1681526020018373ffffffffffffffffffffffffffffffffffffffff1673ffffffffffffffffffffffffffffffffffffffff1681526020018281526020019350505050602060405180830381600087803b158015611a0a57600080fd5b505af1158015611a1e573d6000803e3d6000fd5b505050506040513d6020811015611a3457600080fd5b8101908080519060200190929190505050611ab7576040517f08c379a000000000000000000000000000000000000000000000000000000000815260040180806020018281038252601d8152602001807f496e636f727265637420616d6f756e74206f66204c494e4b2073656e7400000081525060200191505060405180910390fd5b600160098381548110611ac657fe5b906000526020600020906009020160040160016101000a81548160ff0219169083151502179055505b505050565b6000806000806000806000809054906101000a900473ffffffffffffffffffffffffffffffffffffffff1673ffffffffffffffffffffffffffffffffffffffff1663feaf968c6040518163ffffffff1660e01b815260040160a06040518083038186803b158015611b6457600080fd5b505afa158015611b78573d6000803e3d6000fd5b505050506040513d60a0811015611b8e57600080fd5b8101908080519060200190929190805190602001909291908051906020019092919080519060200190929190805190602001909291905050509450945094509450945060008211611c47576040517f08c379a00000000000000000000000000000000000000000000000000000000081526004018080602001828103825260128152602001807f526f756e64206e6f7420636f6d706c657465000000000000000000000000000081525060200191505060405180910390fd5b839550505050505090565b6000826040516020018082805190602001908083835b60208310611c8b5780518252602082019150602081019050602083039250611c68565b6001836020036101000a038019825116818451168082178552505050505050905001915050604051602081830303815290604052805190602001209050600554811480611cd9575060065481145b611d2e576040517f08c379a00000000000000000000000000000000000000000000000000000000081526004018080602001828103825260268152602001806137806026913960400191505060405180910390fd5b600554811415612127573373ffffffffffffffffffffffffffffffffffffffff1660088381548110611d5c57fe5b906000526020600020906009020160080160009054906101000a900473ffffffffffffffffffffffffffffffffffffffff1673ffffffffffffffffffffffffffffffffffffffff1614611e17576040517f08c379a000000000000000000000000000000000000000000000000000000000815260040180806020018281038252601a8152602001807f596f7520646f206e6f74206f776e2074686973206f7074696f6e00000000000081525060200191505060405180910390fd5b60088281548110611e2457fe5b906000526020600020906009020160040160009054906101000a900460ff1615611e99576040517f08c379a00000000000000000000000000000000000000000000000000000000081526004018080602001828103825260218152602001806137ce6021913960400191505060405180910390fd5b4260088381548110611ea757fe5b90600052602060002090600902016002015411611f2c576040517f08c379a00000000000000000000000000000000000000000000000000000000081526004018080602001828103825260118152602001807f4f7074696f6e206973206578706972656400000000000000000000000000000081525060200191505060405180910390fd5b611f3461356a565b600060088381548110611f4357fe5b90600052602060002090600902016003015460088481548110611f6257fe5b9060005260206000209060090201600001540290506000611fa5611f966402540be40060035461358890919063ffffffff16565b8361360e90919063ffffffff16565b9050803414611fff576040517f08c379a00000000000000000000000000000000000000000000000000000000081526004018080602001828103825260268152602001806136c76026913960400191505060405180910390fd5b6008848154811061200c57fe5b906000526020600020906009020160070160009054906101000a900473ffffffffffffffffffffffffffffffffffffffff1673ffffffffffffffffffffffffffffffffffffffff166108fc829081150290604051600060405180830381858888f19350505050158015612083573d6000803e3d6000fd5b503373ffffffffffffffffffffffffffffffffffffffff166108fc600886815481106120ab57fe5b9060005260206000209060090201600301549081150290604051600060405180830381858888f193505050501580156120e8573d6000803e3d6000fd5b506001600885815481106120f857fe5b906000526020600020906009020160040160006101000a81548160ff02191690831515021790555050506126ef565b3373ffffffffffffffffffffffffffffffffffffffff166009838154811061214b57fe5b906000526020600020906009020160080160009054906101000a900473ffffffffffffffffffffffffffffffffffffffff1673ffffffffffffffffffffffffffffffffffffffff1614612206576040517f08c379a000000000000000000000000000000000000000000000000000000000815260040180806020018281038252601a8152602001807f596f7520646f206e6f74206f776e2074686973206f7074696f6e00000000000081525060200191505060405180910390fd5b6009828154811061221357fe5b906000526020600020906009020160040160009054906101000a900460ff1615612288576040517f08c379a00000000000000000000000000000000000000000000000000000000081526004018080602001828103825260218152602001806137ce6021913960400191505060405180910390fd5b426009838154811061229657fe5b9060005260206000209060090201600201541161231b576040517f08c379a00000000000000000000000000000000000000000000000000000000081526004018080602001828103825260118152602001807f4f7074696f6e206973206578706972656400000000000000000000000000000081525060200191505060405180910390fd5b61232361356a565b60006009838154811061233257fe5b9060005260206000209060090201600301546009848154811061235157fe5b90600052602060002090600902016000015402905060006123946123856402540be40060045461358890919063ffffffff16565b8361360e90919063ffffffff16565b9050600260009054906101000a900473ffffffffffffffffffffffffffffffffffffffff1673ffffffffffffffffffffffffffffffffffffffff166323b872dd33600987815481106123e257fe5b906000526020600020906009020160070160009054906101000a900473ffffffffffffffffffffffffffffffffffffffff16846040518463ffffffff1660e01b8152600401808473ffffffffffffffffffffffffffffffffffffffff1673ffffffffffffffffffffffffffffffffffffffff1681526020018373ffffffffffffffffffffffffffffffffffffffff1673ffffffffffffffffffffffffffffffffffffffff1681526020018281526020019350505050602060405180830381600087803b1580156124b157600080fd5b505af11580156124c5573d6000803e3d6000fd5b505050506040513d60208110156124db57600080fd5b8101908080519060200190929190505050612541576040517f08c379a00000000000000000000000000000000000000000000000000000000081526004018080602001828103825260268152602001806136c76026913960400191505060405180910390fd5b600260009054906101000a900473ffffffffffffffffffffffffffffffffffffffff1673ffffffffffffffffffffffffffffffffffffffff1663a9059cbb336009878154811061258d57fe5b9060005260206000209060090201600301546040518363ffffffff1660e01b8152600401808373ffffffffffffffffffffffffffffffffffffffff1673ffffffffffffffffffffffffffffffffffffffff16815260200182815260200192505050602060405180830381600087803b15801561260857600080fd5b505af115801561261c573d6000803e3d6000fd5b505050506040513d602081101561263257600080fd5b81019080805190602001909291905050506126b5576040517f08c379a00000000000000000000000000000000000000000000000000000000081526004018080602001828103825260198152602001807f4572726f723a20627579657220776173206e6f7420706169640000000000000081525060200191505060405180910390fd5b6001600985815481106126c457fe5b906000526020600020906009020160040160006101000a81548160ff02191690831515021790555050505b505050565b6000826040516020018082805190602001908083835b6020831061272d578051825260208201915060208101905060208303925061270a565b6001836020036101000a03801982511681845116808217855250505050505090500191505060405160208183030381529060405280519060200120905060055481148061277b575060065481145b6127d0576040517f08c379a00000000000000000000000000000000000000000000000000000000081526004018080602001828103825260268152602001806137806026913960400191505060405180910390fd5b6127d861356a565b600554811415612a0857600882815481106127ef57fe5b906000526020600020906009020160040160019054906101000a900460ff161580156128385750426008838154811061282457fe5b906000526020600020906009020160020154115b61288d576040517f08c379a000000000000000000000000000000000000000000000000000000000815260040180806020018281038252602f815260200180613698602f913960400191505060405180910390fd5b6008828154811061289a57fe5b9060005260206000209060090201600101543414612903576040517f08c379a00000000000000000000000000000000000000000000000000000000081526004018080602001828103825260288152602001806137376028913960400191505060405180910390fd5b6008828154811061291057fe5b906000526020600020906009020160070160009054906101000a900473ffffffffffffffffffffffffffffffffffffffff1673ffffffffffffffffffffffffffffffffffffffff166108fc6008848154811061296857fe5b9060005260206000209060090201600101549081150290604051600060405180830381858888f193505050501580156129a5573d6000803e3d6000fd5b5033600883815481106129b457fe5b906000526020600020906009020160080160006101000a81548173ffffffffffffffffffffffffffffffffffffffff021916908373ffffffffffffffffffffffffffffffffffffffff160217905550612cda565b60098281548110612a1557fe5b906000526020600020906009020160040160019054906101000a900460ff16158015612a5e57504260098381548110612a4a57fe5b906000526020600020906009020160020154115b612ab3576040517f08c379a000000000000000000000000000000000000000000000000000000000815260040180806020018281038252602f815260200180613698602f913960400191505060405180910390fd5b600260009054906101000a900473ffffffffffffffffffffffffffffffffffffffff1673ffffffffffffffffffffffffffffffffffffffff166323b872dd3360098581548110612aff57fe5b906000526020600020906009020160070160009054906101000a900473ffffffffffffffffffffffffffffffffffffffff1660098681548110612b3e57fe5b9060005260206000209060090201600101546040518463ffffffff1660e01b8152600401808473ffffffffffffffffffffffffffffffffffffffff1673ffffffffffffffffffffffffffffffffffffffff1681526020018373ffffffffffffffffffffffffffffffffffffffff1673ffffffffffffffffffffffffffffffffffffffff1681526020018281526020019350505050602060405180830381600087803b158015612bec57600080fd5b505af1158015612c00573d6000803e3d6000fd5b505050506040513d6020811015612c1657600080fd5b8101908080519060200190929190505050612c7c576040517f08c379a000000000000000000000000000000000000000000000000000000000815260040180806020018281038252602981526020018061370e6029913960400191505060405180910390fd5b3360098381548110612c8a57fe5b906000526020600020906009020160080160006101000a81548173ffffffffffffffffffffffffffffffffffffffff021916908373ffffffffffffffffffffffffffffffffffffffff1602179055505b505050565b6000826040516020018082805190602001908083835b60208310612d185780518252602082019150602081019050602083039250612cf5565b6001836020036101000a038019825116818451168082178552505050505050905001915050604051602081830303815290604052805190602001209050600554811480612d66575060065481145b612dbb576040517f08c379a00000000000000000000000000000000000000000000000000000000081526004018080602001828103825260268152602001806137806026913960400191505060405180910390fd5b6005548114156130985760088281548110612dd257fe5b906000526020600020906009020160070160009054906101000a900473ffffffffffffffffffffffffffffffffffffffff1673ffffffffffffffffffffffffffffffffffffffff163373ffffffffffffffffffffffffffffffffffffffff1614612ea4576040517f08c379a000000000000000000000000000000000000000000000000000000000815260040180806020018281038252601d8152602001807f596f7520646964206e6f742077726974652074686973206f7074696f6e00000081525060200191505060405180910390fd5b60088281548110612eb157fe5b906000526020600020906009020160040160019054906101000a900460ff16158015612f475750600073ffffffffffffffffffffffffffffffffffffffff1660088381548110612efd57fe5b906000526020600020906009020160080160009054906101000a900473ffffffffffffffffffffffffffffffffffffffff1673ffffffffffffffffffffffffffffffffffffffff16145b612fb9576040517f08c379a000000000000000000000000000000000000000000000000000000000815260040180806020018281038252601e8152602001807f54686973206f7074696f6e2063616e6e6f742062652063616e63656c6564000081525060200191505060405180910390fd5b60088281548110612fc657fe5b906000526020600020906009020160070160009054906101000a900473ffffffffffffffffffffffffffffffffffffffff1673ffffffffffffffffffffffffffffffffffffffff166108fc6008848154811061301e57fe5b9060005260206000209060090201600301549081150290604051600060405180830381858888f1935050505015801561305b573d6000803e3d6000fd5b5060016008838154811061306b57fe5b906000526020600020906009020160040160016101000a81548160ff0219169083151502179055506134aa565b600982815481106130a557fe5b906000526020600020906009020160070160009054906101000a900473ffffffffffffffffffffffffffffffffffffffff1673ffffffffffffffffffffffffffffffffffffffff163373ffffffffffffffffffffffffffffffffffffffff1614613177576040517f08c379a000000000000000000000000000000000000000000000000000000000815260040180806020018281038252601d8152602001807f596f7520646964206e6f742077726974652074686973206f7074696f6e00000081525060200191505060405180910390fd5b6009828154811061318457fe5b906000526020600020906009020160040160019054906101000a900460ff1615801561321a5750600073ffffffffffffffffffffffffffffffffffffffff16600983815481106131d057fe5b906000526020600020906009020160080160009054906101000a900473ffffffffffffffffffffffffffffffffffffffff1673ffffffffffffffffffffffffffffffffffffffff16145b61328c576040517f08c379a000000000000000000000000000000000000000000000000000000000815260040180806020018281038252601e8152602001807f54686973206f7074696f6e2063616e6e6f742062652063616e63656c6564000081525060200191505060405180910390fd5b600260009054906101000a900473ffffffffffffffffffffffffffffffffffffffff1673ffffffffffffffffffffffffffffffffffffffff166323b872dd30600985815481106132d857fe5b906000526020600020906009020160070160009054906101000a900473ffffffffffffffffffffffffffffffffffffffff166009868154811061331757fe5b9060005260206000209060090201600301546040518463ffffffff1660e01b8152600401808473ffffffffffffffffffffffffffffffffffffffff1673ffffffffffffffffffffffffffffffffffffffff1681526020018373ffffffffffffffffffffffffffffffffffffffff1673ffffffffffffffffffffffffffffffffffffffff1681526020018281526020019350505050602060405180830381600087803b1580156133c557600080fd5b505af11580156133d9573d6000803e3d6000fd5b505050506040513d60208110156133ef57600080fd5b8101908080519060200190929190505050613472576040517f08c379a000000000000000000000000000000000000000000000000000000000815260040180806020018281038252601d8152602001807f496e636f727265637420616d6f756e74206f66204c494e4b2073656e7400000081525060200191505060405180910390fd5b60016009838154811061348157fe5b906000526020600020906009020160040160016101000a81548160ff0219169083151502179055505b505050565b600981815481106134bc57fe5b90600052602060002090600902016000915090508060000154908060010154908060020154908060030154908060040160009054906101000a900460ff16908060040160019054906101000a900460ff16908060050154908060060154908060070160009054906101000a900473ffffffffffffffffffffffffffffffffffffffff16908060080160009054906101000a900473ffffffffffffffffffffffffffffffffffffffff1690508a565b613572611af4565b600381905550613580610ffc565b600481905550565b60008083141561359b5760009050613608565b60008284029050828482816135ac57fe5b0414613603576040517f08c379a000000000000000000000000000000000000000000000000000000000815260040180806020018281038252602181526020018061375f6021913960400191505060405180910390fd5b809150505b92915050565b6000808211613685576040517f08c379a000000000000000000000000000000000000000000000000000000000815260040180806020018281038252601a8152602001807f536166654d6174683a206469766973696f6e206279207a65726f00000000000081525060200191505060405180910390fd5b81838161368e57fe5b0490509291505056fe4f7074696f6e2069732063616e63656c65642f6578706972656420616e642063616e6e6f7420626520626f75676874496e636f7272656374204c494e4b20616d6f756e742073656e7420746f206578657263697365496e636f727265637420616d6f756e74206f66204c494e4b20737570706c696564496e636f727265637420616d6f756e74206f66204c494e4b2073656e7420666f72207072656d69756d496e636f727265637420616d6f756e74206f66204554482073656e7420666f72207072656d69756d536166654d6174683a206d756c7469706c69636174696f6e206f766572666c6f774f6e6c792045544820616e64204c494e4b20746f6b656e732061726520737570706f7274656454686973206f7074696f6e206973206e6f7420656c696769626c6520666f722077697468647261774f7074696f6e2068617320616c7265616479206265656e20657865726369736564a2646970667358221220c9cdda734d9445f96a6c59750d21b00f9adec81cfd77637a2a1e473a4197402064736f6c63430006070033",
  "linkReferences": {},
  "deployedLinkReferences": {}
}