{
  "_format": "hh-sol-artifact-1",
  "contractName": "chainlinkOptions",
  "sourceName": "contracts/chainlinkOptions.sol",
  "abi": [
    {
      "inputs": [],
      "stateMutability": "nonpayable",
      "type": "constructor"
    },
    {
      "anonymous": false,
      "inputs": [
        {
          "indexed": false,
          "internalType": "string",
          "name": "token",
          "type": "string"
        },
        {
          "indexed": false,
          "internalType": "uint256",
          "name": "strike",
          "type": "uint256"
        },
        {
          "indexed": false,
          "internalType": "uint256",
          "name": "premium",
          "type": "uint256"
        },
        {
          "indexed": false,
          "internalType": "uint256",
          "name": "expiry",
          "type": "uint256"
        },
        {
          "indexed": false,
          "internalType": "uint256",
          "name": "tknAmt",
          "type": "uint256"
        }
      ],
      "name": "OptionWritten",
      "type": "event"
    },
    {
      "inputs": [
        {
          "internalType": "string",
          "name": "token",
          "type": "string"
        },
        {
          "internalType": "uint256",
          "name": "ID",
          "type": "uint256"
        }
      ],
      "name": "buyOption",
      "outputs": [],
      "stateMutability": "payable",
      "type": "function"
    },
    {
      "inputs": [
        {
          "internalType": "string",
          "name": "token",
          "type": "string"
        },
        {
          "internalType": "uint256",
          "name": "ID",
          "type": "uint256"
        }
      ],
      "name": "cancelOption",
      "outputs": [],
      "stateMutability": "payable",
      "type": "function"
    },
    {
      "inputs": [
        {
          "internalType": "uint256",
          "name": "",
          "type": "uint256"
        }
      ],
      "name": "ethOpts",
      "outputs": [
        {
          "internalType": "uint256",
          "name": "strike",
          "type": "uint256"
        },
        {
          "internalType": "uint256",
          "name": "premium",
          "type": "uint256"
        },
        {
          "internalType": "uint256",
          "name": "expiry",
          "type": "uint256"
        },
        {
          "internalType": "uint256",
          "name": "amount",
          "type": "uint256"
        },
        {
          "internalType": "bool",
          "name": "exercised",
          "type": "bool"
        },
        {
          "internalType": "bool",
          "name": "canceled",
          "type": "bool"
        },
        {
          "internalType": "uint256",
          "name": "id",
          "type": "uint256"
        },
        {
          "internalType": "uint256",
          "name": "latestCost",
          "type": "uint256"
        },
        {
          "internalType": "address payable",
          "name": "writer",
          "type": "address"
        },
        {
          "internalType": "address payable",
          "name": "buyer",
          "type": "address"
        }
      ],
      "stateMutability": "view",
      "type": "function"
    },
    {
      "inputs": [
        {
          "internalType": "string",
          "name": "token",
          "type": "string"
        },
        {
          "internalType": "uint256",
          "name": "ID",
          "type": "uint256"
        }
      ],
      "name": "exercise",
      "outputs": [],
      "stateMutability": "payable",
      "type": "function"
    },
    {
      "inputs": [],
      "name": "getEthPrice",
      "outputs": [
        {
          "internalType": "uint256",
          "name": "",
          "type": "uint256"
        }
      ],
      "stateMutability": "view",
      "type": "function"
    },
    {
      "inputs": [],
      "name": "getLinkPrice",
      "outputs": [
        {
          "internalType": "uint256",
          "name": "",
          "type": "uint256"
        }
      ],
      "stateMutability": "view",
      "type": "function"
    },
    {
      "inputs": [
        {
          "internalType": "uint256",
          "name": "",
          "type": "uint256"
        }
      ],
      "name": "linkOpts",
      "outputs": [
        {
          "internalType": "uint256",
          "name": "strike",
          "type": "uint256"
        },
        {
          "internalType": "uint256",
          "name": "premium",
          "type": "uint256"
        },
        {
          "internalType": "uint256",
          "name": "expiry",
          "type": "uint256"
        },
        {
          "internalType": "uint256",
          "name": "amount",
          "type": "uint256"
        },
        {
          "internalType": "bool",
          "name": "exercised",
          "type": "bool"
        },
        {
          "internalType": "bool",
          "name": "canceled",
          "type": "bool"
        },
        {
          "internalType": "uint256",
          "name": "id",
          "type": "uint256"
        },
        {
          "internalType": "uint256",
          "name": "latestCost",
          "type": "uint256"
        },
        {
          "internalType": "address payable",
          "name": "writer",
          "type": "address"
        },
        {
          "internalType": "address payable",
          "name": "buyer",
          "type": "address"
        }
      ],
      "stateMutability": "view",
      "type": "function"
    },
    {
      "inputs": [
        {
          "internalType": "string",
          "name": "token",
          "type": "string"
        },
        {
          "internalType": "uint256",
          "name": "ID",
          "type": "uint256"
        }
      ],
      "name": "retrieveExpiredFunds",
      "outputs": [],
      "stateMutability": "payable",
      "type": "function"
    },
    {
      "inputs": [
        {
          "internalType": "string",
          "name": "token",
          "type": "string"
        },
        {
          "internalType": "uint256",
          "name": "ID",
          "type": "uint256"
        }
      ],
      "name": "updateExerciseCost",
      "outputs": [],
      "stateMutability": "nonpayable",
      "type": "function"
    },
    {
      "inputs": [
        {
          "internalType": "string",
          "name": "token",
          "type": "string"
        },
        {
          "internalType": "uint256",
          "name": "strike",
          "type": "uint256"
        },
        {
          "internalType": "uint256",
          "name": "premium",
          "type": "uint256"
        },
        {
          "internalType": "uint256",
          "name": "expiry",
          "type": "uint256"
        },
        {
          "internalType": "uint256",
          "name": "tknAmt",
          "type": "uint256"
        }
      ],
      "name": "writeOption",
      "outputs": [],
      "stateMutability": "payable",
      "type": "function"
    },
    {
      "inputs": [
        {
          "internalType": "string",
          "name": "token",
          "type": "string"
        },
        {
          "internalType": "uint256",
          "name": "strike",
          "type": "uint256"
        },
        {
          "internalType": "uint256",
          "name": "premium",
          "type": "uint256"
        },
        {
          "internalType": "uint256",
          "name": "expiry",
          "type": "uint256"
        },
        {
          "internalType": "uint256",
          "name": "tknAmt",
          "type": "uint256"
        }
      ],
      "name": "writeOptionTest",
      "outputs": [],
      "stateMutability": "payable",
      "type": "function"
    }
  ],
  "bytecode": "0x6208aa8960eb1b60a05260036080527faaaebeba3810b1e6b70781f14b2d72c1cb89c0b2b320c43bb67ff79f562f5ff4600555634c494e4b60e01b60c352600460a35260c76040527f921a3539bcb764c889432630877414523e7fbca00c211bc787aeae69e2e3a77960065534801561007757600080fd5b50600080546001600160a01b0319908116739326bfa02add2366b30bacb125260af6410313311790915560018054821673396c5e36dd0a0f5a5d33dae44368d4193f69a1f017905560028054821673a36085f69e2889c224210f603d836748e7dc0088179055600780549091163017905561290c806100f76000396000f3fe60806040526004361061009c5760003560e01c80636275c9e6116100645780636275c9e61461036d57806367c9b01714610413578063997164bd14610428578063a5da8495146104ce578063a8e2b9cd14610574578063bddd674c1461061a5761009c565b80631071a8d6146100a15780631103f0c014610158578063237090e2146101de5780632dddd49c146102935780634f011356146102ba575b600080fd5b610156600480360360a08110156100b757600080fd5b810190602081018135600160201b8111156100d157600080fd5b8201836020820111156100e357600080fd5b803590602001918460018302840111600160201b8311171561010457600080fd5b91908080601f0160208091040260200160405190810160405280939291908181526020018383808284376000920191909152509295505082359350505060208101359060408101359060600135610644565b005b34801561016457600080fd5b506101826004803603602081101561017b57600080fd5b5035610d5b565b604080519a8b5260208b0199909952898901979097526060890195909552921515608088015290151560a087015260c086015260e08501526001600160a01b039081166101008501521661012083015251908190036101400190f35b610156600480360360a08110156101f457600080fd5b810190602081018135600160201b81111561020e57600080fd5b82018360208201111561022057600080fd5b803590602001918460018302840111600160201b8311171561024157600080fd5b91908080601f0160208091040260200160405190810160405280939291908181526020018383808284376000920191909152509295505082359350505060208101359060408101359060600135610dce565b34801561029f57600080fd5b506102a8610e8e565b60408051918252519081900360200190f35b3480156102c657600080fd5b50610156600480360360408110156102dd57600080fd5b810190602081018135600160201b8111156102f757600080fd5b82018360208201111561030957600080fd5b803590602001918460018302840111600160201b8311171561032a57600080fd5b91908080601f0160208091040260200160405190810160405280939291908181526020018383808284376000920191909152509295505091359250610f85915050565b6101566004803603604081101561038357600080fd5b810190602081018135600160201b81111561039d57600080fd5b8201836020820111156103af57600080fd5b803590602001918460018302840111600160201b831117156103d057600080fd5b91908080601f0160208091040260200160405190810160405280939291908181526020018383808284376000920191909152509295505091359250611157915050565b34801561041f57600080fd5b506102a86116c2565b6101566004803603604081101561043e57600080fd5b810190602081018135600160201b81111561045857600080fd5b82018360208201111561046a57600080fd5b803590602001918460018302840111600160201b8311171561048b57600080fd5b91908080601f0160208091040260200160405190810160405280939291908181526020018383808284376000920191909152509295505091359250611718915050565b610156600480360360408110156104e457600080fd5b810190602081018135600160201b8111156104fe57600080fd5b82018360208201111561051057600080fd5b803590602001918460018302840111600160201b8311171561053157600080fd5b91908080601f0160208091040260200160405190810160405280939291908181526020018383808284376000920191909152509295505091359250611ebc915050565b6101566004803603604081101561058a57600080fd5b810190602081018135600160201b8111156105a457600080fd5b8201836020820111156105b657600080fd5b803590602001918460018302840111600160201b831117156105d757600080fd5b91908080601f016020809104026020016040519081016040528093929190818152602001838380828437600092019190915250929550509135925061235b915050565b34801561062657600080fd5b506101826004803603602081101561063d57600080fd5b5035612671565b6000856040516020018082805190602001908083835b602083106106795780518252601f19909201916020918201910161065a565b6001836020036101000a0380198251168184511680821785525050505050509050019150506040516020818303038152906040528051906020012090506005548114806106c7575060065481145b6107025760405162461bcd60e51b81526004018080602001828103825260268152602001806128686026913960400191505060405180910390fd5b61070a61267e565b6005548114156109ac57813414610768576040805162461bcd60e51b815260206004820181905260248201527f496e636f727265637420616d6f756e74206f662045544820737570706c696564604482015290519081900360640190fd5b60006107a36107876402540be40060035461269690919063ffffffff16565b610797888663ffffffff61269616565b9063ffffffff6126f816565b6040805161014081018252888152602081018881529181018781526060820187815260006080840181815260a085018281526008805460c0880181815260e089019a8b5233610100808b019182526101208b018881526001850186559490975298517ff3f7a9fe364faab93b216da50a3214154f22a0a2b415b23a84c8169e8b636ee360099093029283015598517ff3f7a9fe364faab93b216da50a3214154f22a0a2b415b23a84c8169e8b636ee482015595517ff3f7a9fe364faab93b216da50a3214154f22a0a2b415b23a84c8169e8b636ee587015593517ff3f7a9fe364faab93b216da50a3214154f22a0a2b415b23a84c8169e8b636ee686015590517ff3f7a9fe364faab93b216da50a3214154f22a0a2b415b23a84c8169e8b636ee785018054925160ff19939093169115159190911761ff00191691151590920217905592517ff3f7a9fe364faab93b216da50a3214154f22a0a2b415b23a84c8169e8b636ee882015592517ff3f7a9fe364faab93b216da50a3214154f22a0a2b415b23a84c8169e8b636ee9840155517ff3f7a9fe364faab93b216da50a3214154f22a0a2b415b23a84c8169e8b636eea830180546001600160a01b03199081166001600160a01b039384161790915591517ff3f7a9fe364faab93b216da50a3214154f22a0a2b415b23a84c8169e8b636eeb9093018054909216921691909117905550610c9a565b600254600754604080516323b872dd60e01b81523360048201526001600160a01b03928316602482015260448101869052905191909216916323b872dd9160648083019260209291908290030181600087803b158015610a0b57600080fd5b505af1158015610a1f573d6000803e3d6000fd5b505050506040513d6020811015610a3557600080fd5b5051610a725760405162461bcd60e51b81526004018080602001828103825260218152602001806127b56021913960400191505060405180910390fd5b6000610a916107876402540be40060045461269690919063ffffffff16565b6040805161014081018252888152602081018881529181018781526060820187815260006080840181815260a085018281526009805460c0880181815260e089019a8b5233610100808b019182526101208b018881526001850186559785905299517f6e1540171b6c0c960b71a7020d9f60077f6af931a8bbf590da0223dacf75c7af939094029283019390935598517f6e1540171b6c0c960b71a7020d9f60077f6af931a8bbf590da0223dacf75c7b082015595517f6e1540171b6c0c960b71a7020d9f60077f6af931a8bbf590da0223dacf75c7b187015593517f6e1540171b6c0c960b71a7020d9f60077f6af931a8bbf590da0223dacf75c7b286015590517f6e1540171b6c0c960b71a7020d9f60077f6af931a8bbf590da0223dacf75c7b385018054925160ff19939093169115159190911761ff0019169115159095021790935592517f6e1540171b6c0c960b71a7020d9f60077f6af931a8bbf590da0223dacf75c7b482015592517f6e1540171b6c0c960b71a7020d9f60077f6af931a8bbf590da0223dacf75c7b584015590517f6e1540171b6c0c960b71a7020d9f60077f6af931a8bbf590da0223dacf75c7b6830180546001600160a01b03199081166001600160a01b039384161790915591517f6e1540171b6c0c960b71a7020d9f60077f6af931a8bbf590da0223dacf75c7b790930180549092169216919091179055505b7fbdf8a60a72b7b052f549ff89d6a625a6a291a3bd99f9cd9d3ca71007b07ec1f586868686866040518080602001868152602001858152602001848152602001838152602001828103825287818151815260200191508051906020019080838360005b83811015610d15578181015183820152602001610cfd565b50505050905090810190601f168015610d425780820380516001836020036101000a031916815260200191505b50965050505050505060405180910390a1505050505050565b60088181548110610d6857fe5b600091825260209091206009909102018054600182015460028301546003840154600485015460058601546006870154600788015460089098015496985094969395929460ff808416956101009094041693919290916001600160a01b0391821691168a565b7fbdf8a60a72b7b052f549ff89d6a625a6a291a3bd99f9cd9d3ca71007b07ec1f585858585856040518080602001868152602001858152602001848152602001838152602001828103825287818151815260200191508051906020019080838360005b83811015610e49578181015183820152602001610e31565b50505050905090810190601f168015610e765780820380516001836020036101000a031916815260200191505b50965050505050505060405180910390a15050505050565b600080600080600080600160009054906101000a90046001600160a01b03166001600160a01b031663feaf968c6040518163ffffffff1660e01b815260040160a06040518083038186803b158015610ee557600080fd5b505afa158015610ef9573d6000803e3d6000fd5b505050506040513d60a0811015610f0f57600080fd5b5080516020820151604083015160608401516080909401519298509096509450909250905081610f7b576040805162461bcd60e51b8152602060048201526012602482015271526f756e64206e6f7420636f6d706c65746560701b604482015290519081900360640190fd5b5091935050505090565b6000826040516020018082805190602001908083835b60208310610fba5780518252601f199092019160209182019101610f9b565b6001836020036101000a038019825116818451168082178552505050505050905001915050604051602081830303815290604052805190602001209050600554811480611008575060065481145b6110435760405162461bcd60e51b81526004018080602001828103825260268152602001806128686026913960400191505060405180910390fd5b61104b61267e565b6005548114156110e4576003546110bd90611071906402540be40063ffffffff61269616565b6107976008858154811061108157fe5b906000526020600020906009020160030154600886815481106110a057fe5b60009182526020909120600990910201549063ffffffff61269616565b600883815481106110ca57fe5b906000526020600020906009020160060181905550611152565b60045461112f90611100906402540be40063ffffffff61269616565b6107976009858154811061111057fe5b906000526020600020906009020160030154600986815481106110a057fe5b6009838154811061113c57fe5b9060005260206000209060090201600601819055505b505050565b6000826040516020018082805190602001908083835b6020831061118c5780518252601f19909201916020918201910161116d565b6001836020036101000a0380198251168184511680821785525050505050509050019150506040516020818303038152906040528051906020012090506005548114806111da575060065481145b6112155760405162461bcd60e51b81526004018080602001828103825260268152602001806128686026913960400191505060405180910390fd5b60055481141561140e576008828154811061122c57fe5b60009182526020909120600990910201600701546001600160a01b0316331461128a576040805162461bcd60e51b815260206004820152601d6024820152600080516020612848833981519152604482015290519081900360640190fd5b426008838154811061129857fe5b906000526020600020906009020160020154111580156112d95750600882815481106112c057fe5b600091825260209091206004600990920201015460ff16155b801561130e5750600882815481106112ed57fe5b906000526020600020906009020160040160019054906101000a900460ff16155b6113495760405162461bcd60e51b815260040180806020018281038252602881526020018061288e6028913960400191505060405180910390fd5b6008828154811061135657fe5b906000526020600020906009020160070160009054906101000a90046001600160a01b03166001600160a01b03166108fc6008848154811061139457fe5b9060005260206000209060090201600301549081150290604051600060405180830381858888f193505050501580156113d1573d6000803e3d6000fd5b506001600883815481106113e157fe5b906000526020600020906009020160040160016101000a81548160ff021916908315150217905550611152565b6009828154811061141b57fe5b60009182526020909120600990910201600701546001600160a01b03163314611479576040805162461bcd60e51b815260206004820152601d6024820152600080516020612848833981519152604482015290519081900360640190fd5b426009838154811061148757fe5b906000526020600020906009020160020154111580156114c85750600982815481106114af57fe5b600091825260209091206004600990920201015460ff16155b80156114fd5750600982815481106114dc57fe5b906000526020600020906009020160040160019054906101000a900460ff16155b6115385760405162461bcd60e51b815260040180806020018281038252602881526020018061288e6028913960400191505060405180910390fd5b600254600980546001600160a01b03909216916323b872dd9130918690811061155d57fe5b906000526020600020906009020160070160009054906101000a90046001600160a01b03166009868154811061158f57fe5b9060005260206000209060090201600301546040518463ffffffff1660e01b815260040180846001600160a01b03166001600160a01b03168152602001836001600160a01b03166001600160a01b031681526020018281526020019350505050602060405180830381600087803b15801561160957600080fd5b505af115801561161d573d6000803e3d6000fd5b505050506040513d602081101561163357600080fd5b5051611686576040805162461bcd60e51b815260206004820152601d60248201527f496e636f727265637420616d6f756e74206f66204c494e4b2073656e74000000604482015290519081900360640190fd5b60016009838154811061169557fe5b906000526020600020906009020160040160016101000a81548160ff021916908315150217905550505050565b6000806000806000806000809054906101000a90046001600160a01b03166001600160a01b031663feaf968c6040518163ffffffff1660e01b815260040160a06040518083038186803b158015610ee557600080fd5b6000826040516020018082805190602001908083835b6020831061174d5780518252601f19909201916020918201910161172e565b6001836020036101000a03801982511681845116808217855250505050505090500191505060405160208183030381529060405280519060200120905060055481148061179b575060065481145b6117d65760405162461bcd60e51b81526004018080602001828103825260268152602001806128686026913960400191505060405180910390fd5b600554811415611acf57336001600160a01b0316600883815481106117f757fe5b60009182526020909120600860099092020101546001600160a01b031614611866576040805162461bcd60e51b815260206004820152601a60248201527f596f7520646f206e6f74206f776e2074686973206f7074696f6e000000000000604482015290519081900360640190fd5b6008828154811061187357fe5b600091825260209091206004600990920201015460ff16156118c65760405162461bcd60e51b81526004018080602001828103825260218152602001806128b66021913960400191505060405180910390fd5b42600883815481106118d457fe5b9060005260206000209060090201600201541161192c576040805162461bcd60e51b815260206004820152601160248201527013dc1d1a5bdb881a5cc8195e1c1a5c9959607a1b604482015290519081900360640190fd5b61193461267e565b60006008838154811061194357fe5b9060005260206000209060090201600301546008848154811061196257fe5b90600052602060002090600902016000015402905060006119a36119966402540be40060035461269690919063ffffffff16565b839063ffffffff6126f816565b90508034146119e35760405162461bcd60e51b815260040180806020018281038252602681526020018061278f6026913960400191505060405180910390fd5b600884815481106119f057fe5b600091825260208220600760099092020101546040516001600160a01b039091169183156108fc02918491818181858888f19350505050158015611a38573d6000803e3d6000fd5b50336001600160a01b03166108fc60088681548110611a5357fe5b9060005260206000209060090201600301549081150290604051600060405180830381858888f19350505050158015611a90573d6000803e3d6000fd5b50600160088581548110611aa057fe5b906000526020600020906009020160040160006101000a81548160ff0219169083151502179055505050611152565b336001600160a01b031660098381548110611ae657fe5b60009182526020909120600860099092020101546001600160a01b031614611b55576040805162461bcd60e51b815260206004820152601a60248201527f596f7520646f206e6f74206f776e2074686973206f7074696f6e000000000000604482015290519081900360640190fd5b60098281548110611b6257fe5b600091825260209091206004600990920201015460ff1615611bb55760405162461bcd60e51b81526004018080602001828103825260218152602001806128b66021913960400191505060405180910390fd5b4260098381548110611bc357fe5b90600052602060002090600902016002015411611c1b576040805162461bcd60e51b815260206004820152601160248201527013dc1d1a5bdb881a5cc8195e1c1a5c9959607a1b604482015290519081900360640190fd5b611c2361267e565b600060098381548110611c3257fe5b90600052602060002090600902016003015460098481548110611c5157fe5b9060005260206000209060090201600001540290506000611c856119966402540be40060045461269690919063ffffffff16565b600254600980549293506001600160a01b03909116916323b872dd91339188908110611cad57fe5b6000918252602080832060076009909302019190910154604080516001600160e01b031960e088901b1681526001600160a01b0395861660048201529490911660248501526044840187905251606480850194929391928390030190829087803b158015611d1a57600080fd5b505af1158015611d2e573d6000803e3d6000fd5b505050506040513d6020811015611d4457600080fd5b5051611d815760405162461bcd60e51b815260040180806020018281038252602681526020018061278f6026913960400191505060405180910390fd5b600254600980546001600160a01b039092169163a9059cbb91339188908110611da657fe5b9060005260206000209060090201600301546040518363ffffffff1660e01b815260040180836001600160a01b03166001600160a01b0316815260200182815260200192505050602060405180830381600087803b158015611e0757600080fd5b505af1158015611e1b573d6000803e3d6000fd5b505050506040513d6020811015611e3157600080fd5b5051611e84576040805162461bcd60e51b815260206004820152601960248201527f4572726f723a20627579657220776173206e6f74207061696400000000000000604482015290519081900360640190fd5b600160098581548110611e9357fe5b60009182526020909120600990910201600401805460ff19169115159190911790555050505050565b6000826040516020018082805190602001908083835b60208310611ef15780518252601f199092019160209182019101611ed2565b6001836020036101000a038019825116818451168082178552505050505050905001915050604051602081830303815290604052805190602001209050600554811480611f3f575060065481145b611f7a5760405162461bcd60e51b81526004018080602001828103825260268152602001806128686026913960400191505060405180910390fd5b611f8261267e565b60055481141561214a5760088281548110611f9957fe5b906000526020600020906009020160040160019054906101000a900460ff16158015611fe257504260088381548110611fce57fe5b906000526020600020906009020160020154115b61201d5760405162461bcd60e51b815260040180806020018281038252602f815260200180612760602f913960400191505060405180910390fd5b6008828154811061202a57fe5b90600052602060002090600902016001015434146120795760405162461bcd60e51b81526004018080602001828103825260288152602001806127ff6028913960400191505060405180910390fd5b6008828154811061208657fe5b906000526020600020906009020160070160009054906101000a90046001600160a01b03166001600160a01b03166108fc600884815481106120c457fe5b9060005260206000209060090201600101549081150290604051600060405180830381858888f19350505050158015612101573d6000803e3d6000fd5b50336008838154811061211057fe5b906000526020600020906009020160080160006101000a8154816001600160a01b0302191690836001600160a01b03160217905550611152565b6009828154811061215757fe5b906000526020600020906009020160040160019054906101000a900460ff161580156121a05750426009838154811061218c57fe5b906000526020600020906009020160020154115b6121db5760405162461bcd60e51b815260040180806020018281038252602f815260200180612760602f913960400191505060405180910390fd5b600254600980546001600160a01b03909216916323b872dd9133918690811061220057fe5b906000526020600020906009020160070160009054906101000a90046001600160a01b03166009868154811061223257fe5b9060005260206000209060090201600101546040518463ffffffff1660e01b815260040180846001600160a01b03166001600160a01b03168152602001836001600160a01b03166001600160a01b031681526020018281526020019350505050602060405180830381600087803b1580156122ac57600080fd5b505af11580156122c0573d6000803e3d6000fd5b505050506040513d60208110156122d657600080fd5b50516123135760405162461bcd60e51b81526004018080602001828103825260298152602001806127d66029913960400191505060405180910390fd5b336009838154811061232157fe5b906000526020600020906009020160080160006101000a8154816001600160a01b0302191690836001600160a01b03160217905550505050565b6000826040516020018082805190602001908083835b602083106123905780518252601f199092019160209182019101612371565b6001836020036101000a0380198251168184511680821785525050505050509050019150506040516020818303038152906040528051906020012090506005548114806123de575060065481145b6124195760405162461bcd60e51b81526004018080602001828103825260268152602001806128686026913960400191505060405180910390fd5b60055481141561254a576008828154811061243057fe5b60009182526020909120600990910201600701546001600160a01b0316331461248e576040805162461bcd60e51b815260206004820152601d6024820152600080516020612848833981519152604482015290519081900360640190fd5b6008828154811061249b57fe5b906000526020600020906009020160040160019054906101000a900460ff161580156124f9575060006001600160a01b0316600883815481106124da57fe5b60009182526020909120600860099092020101546001600160a01b0316145b611349576040805162461bcd60e51b815260206004820152601e60248201527f54686973206f7074696f6e2063616e6e6f742062652063616e63656c65640000604482015290519081900360640190fd5b6009828154811061255757fe5b60009182526020909120600990910201600701546001600160a01b031633146125b5576040805162461bcd60e51b815260206004820152601d6024820152600080516020612848833981519152604482015290519081900360640190fd5b600982815481106125c257fe5b906000526020600020906009020160040160019054906101000a900460ff16158015612620575060006001600160a01b03166009838154811061260157fe5b60009182526020909120600860099092020101546001600160a01b0316145b611538576040805162461bcd60e51b815260206004820152601e60248201527f54686973206f7074696f6e2063616e6e6f742062652063616e63656c65640000604482015290519081900360640190fd5b60098181548110610d6857fe5b6126866116c2565b600355612691610e8e565b600455565b6000826126a5575060006126f2565b828202828482816126b257fe5b04146126ef5760405162461bcd60e51b81526004018080602001828103825260218152602001806128276021913960400191505060405180910390fd5b90505b92915050565b600080821161274e576040805162461bcd60e51b815260206004820152601a60248201527f536166654d6174683a206469766973696f6e206279207a65726f000000000000604482015290519081900360640190fd5b81838161275757fe5b04939250505056fe4f7074696f6e2069732063616e63656c65642f6578706972656420616e642063616e6e6f7420626520626f75676874496e636f7272656374204c494e4b20616d6f756e742073656e7420746f206578657263697365496e636f727265637420616d6f756e74206f66204c494e4b20737570706c696564496e636f727265637420616d6f756e74206f66204c494e4b2073656e7420666f72207072656d69756d496e636f727265637420616d6f756e74206f66204554482073656e7420666f72207072656d69756d536166654d6174683a206d756c7469706c69636174696f6e206f766572666c6f77596f7520646964206e6f742077726974652074686973206f7074696f6e0000004f6e6c792045544820616e64204c494e4b20746f6b656e732061726520737570706f7274656454686973206f7074696f6e206973206e6f7420656c696769626c6520666f722077697468647261774f7074696f6e2068617320616c7265616479206265656e20657865726369736564a264697066735822122082a4328c614b702c8d7d341da6ba992bf88b75edf0ae784361fc2c758329c92c64736f6c63430006070033",
  "linkReferences": {},
  "deployedLinkReferences": {}
}