{
  "_format": "hh-sol-artifact-1",
  "contractName": "chainlinkOptions",
  "sourceName": "contracts/chainlinkOptions.sol",
  "abi": [
    {
      "inputs": [],
      "stateMutability": "nonpayable",
      "type": "constructor"
    },
    {
      "anonymous": false,
      "inputs": [
        {
          "indexed": false,
          "internalType": "string",
          "name": "token",
          "type": "string"
        },
        {
          "indexed": false,
          "internalType": "uint256",
          "name": "strike",
          "type": "uint256"
        },
        {
          "indexed": false,
          "internalType": "uint256",
          "name": "premium",
          "type": "uint256"
        },
        {
          "indexed": false,
          "internalType": "uint256",
          "name": "expiry",
          "type": "uint256"
        },
        {
          "indexed": false,
          "internalType": "uint256",
          "name": "tknAmt",
          "type": "uint256"
        }
      ],
      "name": "OptionWritten",
      "type": "event"
    },
    {
      "inputs": [
        {
          "internalType": "string",
          "name": "token",
          "type": "string"
        },
        {
          "internalType": "uint256",
          "name": "ID",
          "type": "uint256"
        }
      ],
      "name": "buyOption",
      "outputs": [],
      "stateMutability": "payable",
      "type": "function"
    },
    {
      "inputs": [
        {
          "internalType": "string",
          "name": "token",
          "type": "string"
        },
        {
          "internalType": "uint256",
          "name": "ID",
          "type": "uint256"
        }
      ],
      "name": "cancelOption",
      "outputs": [],
      "stateMutability": "payable",
      "type": "function"
    },
    {
      "inputs": [
        {
          "internalType": "uint256",
          "name": "",
          "type": "uint256"
        }
      ],
      "name": "ethOpts",
      "outputs": [
        {
          "internalType": "uint256",
          "name": "strike",
          "type": "uint256"
        },
        {
          "internalType": "uint256",
          "name": "premium",
          "type": "uint256"
        },
        {
          "internalType": "uint256",
          "name": "expiry",
          "type": "uint256"
        },
        {
          "internalType": "uint256",
          "name": "amount",
          "type": "uint256"
        },
        {
          "internalType": "bool",
          "name": "exercised",
          "type": "bool"
        },
        {
          "internalType": "bool",
          "name": "canceled",
          "type": "bool"
        },
        {
          "internalType": "uint256",
          "name": "id",
          "type": "uint256"
        },
        {
          "internalType": "uint256",
          "name": "latestCost",
          "type": "uint256"
        },
        {
          "internalType": "address payable",
          "name": "writer",
          "type": "address"
        },
        {
          "internalType": "address payable",
          "name": "buyer",
          "type": "address"
        }
      ],
      "stateMutability": "view",
      "type": "function"
    },
    {
      "inputs": [
        {
          "internalType": "string",
          "name": "token",
          "type": "string"
        },
        {
          "internalType": "uint256",
          "name": "ID",
          "type": "uint256"
        }
      ],
      "name": "exercise",
      "outputs": [],
      "stateMutability": "payable",
      "type": "function"
    },
    {
      "inputs": [],
      "name": "getEthPrice",
      "outputs": [
        {
          "internalType": "uint256",
          "name": "",
          "type": "uint256"
        }
      ],
      "stateMutability": "view",
      "type": "function"
    },
    {
      "inputs": [],
      "name": "getLinkPrice",
      "outputs": [
        {
          "internalType": "uint256",
          "name": "",
          "type": "uint256"
        }
      ],
      "stateMutability": "view",
      "type": "function"
    },
    {
      "inputs": [
        {
          "internalType": "uint256",
          "name": "",
          "type": "uint256"
        }
      ],
      "name": "linkOpts",
      "outputs": [
        {
          "internalType": "uint256",
          "name": "strike",
          "type": "uint256"
        },
        {
          "internalType": "uint256",
          "name": "premium",
          "type": "uint256"
        },
        {
          "internalType": "uint256",
          "name": "expiry",
          "type": "uint256"
        },
        {
          "internalType": "uint256",
          "name": "amount",
          "type": "uint256"
        },
        {
          "internalType": "bool",
          "name": "exercised",
          "type": "bool"
        },
        {
          "internalType": "bool",
          "name": "canceled",
          "type": "bool"
        },
        {
          "internalType": "uint256",
          "name": "id",
          "type": "uint256"
        },
        {
          "internalType": "uint256",
          "name": "latestCost",
          "type": "uint256"
        },
        {
          "internalType": "address payable",
          "name": "writer",
          "type": "address"
        },
        {
          "internalType": "address payable",
          "name": "buyer",
          "type": "address"
        }
      ],
      "stateMutability": "view",
      "type": "function"
    },
    {
      "inputs": [
        {
          "internalType": "string",
          "name": "token",
          "type": "string"
        },
        {
          "internalType": "uint256",
          "name": "ID",
          "type": "uint256"
        }
      ],
      "name": "retrieveExpiredFunds",
      "outputs": [],
      "stateMutability": "payable",
      "type": "function"
    },
    {
      "inputs": [
        {
          "internalType": "string",
          "name": "token",
          "type": "string"
        },
        {
          "internalType": "uint256",
          "name": "ID",
          "type": "uint256"
        }
      ],
      "name": "updateExerciseCost",
      "outputs": [],
      "stateMutability": "nonpayable",
      "type": "function"
    },
    {
      "inputs": [
        {
          "internalType": "string",
          "name": "token",
          "type": "string"
        },
        {
          "internalType": "uint256",
          "name": "strike",
          "type": "uint256"
        },
        {
          "internalType": "uint256",
          "name": "premium",
          "type": "uint256"
        },
        {
          "internalType": "uint256",
          "name": "expiry",
          "type": "uint256"
        },
        {
          "internalType": "uint256",
          "name": "tknAmt",
          "type": "uint256"
        }
      ],
      "name": "writeOption",
      "outputs": [],
      "stateMutability": "payable",
      "type": "function"
    },
    {
      "inputs": [
        {
          "internalType": "string",
          "name": "token",
          "type": "string"
        },
        {
          "internalType": "uint256",
          "name": "strike",
          "type": "uint256"
        },
        {
          "internalType": "uint256",
          "name": "premium",
          "type": "uint256"
        },
        {
          "internalType": "uint256",
          "name": "expiry",
          "type": "uint256"
        },
        {
          "internalType": "uint256",
          "name": "tknAmt",
          "type": "uint256"
        }
      ],
      "name": "writeOptionTest",
      "outputs": [],
      "stateMutability": "payable",
      "type": "function"
    }
  ],
  "bytecode": "0x608060405260405160200180807f455448000000000000000000000000000000000000000000000000000000000081525060030190506040516020818303038152906040528051906020012060055560405160200180807f4c494e4b000000000000000000000000000000000000000000000000000000008152506004019050604051602081830303815290604052805190602001206006553480156100a457600080fd5b50739326bfa02add2366b30bacb125260af6410313316000806101000a81548173ffffffffffffffffffffffffffffffffffffffff021916908373ffffffffffffffffffffffffffffffffffffffff16021790555073396c5e36dd0a0f5a5d33dae44368d4193f69a1f0600160006101000a81548173ffffffffffffffffffffffffffffffffffffffff021916908373ffffffffffffffffffffffffffffffffffffffff16021790555073a36085f69e2889c224210f603d836748e7dc0088600260006101000a81548173ffffffffffffffffffffffffffffffffffffffff021916908373ffffffffffffffffffffffffffffffffffffffff16021790555030600760006101000a81548173ffffffffffffffffffffffffffffffffffffffff021916908373ffffffffffffffffffffffffffffffffffffffff1602179055506139d5806101f36000396000f3fe60806040526004361061009c5760003560e01c80636275c9e6116100645780636275c9e61461045257806367c9b01714610517578063997164bd14610542578063a5da849514610607578063a8e2b9cd146106cc578063bddd674c146107915761009c565b80631071a8d6146100a15780631103f0c014610184578063237090e2146102725780632dddd49c146103555780634f01135614610380575b600080fd5b610182600480360360a08110156100b757600080fd5b81019080803590602001906401000000008111156100d457600080fd5b8201836020820111156100e657600080fd5b8035906020019184600183028401116401000000008311171561010857600080fd5b91908080601f016020809104026020016040519081016040528093929190818152602001838380828437600081840152601f19601f8201169050808301925050505050505091929192908035906020019092919080359060200190929190803590602001909291908035906020019092919050505061087f565b005b34801561019057600080fd5b506101bd600480360360208110156101a757600080fd5b810190808035906020019092919050505061102f565b604051808b81526020018a815260200189815260200188815260200187151515158152602001861515151581526020018581526020018481526020018373ffffffffffffffffffffffffffffffffffffffff1673ffffffffffffffffffffffffffffffffffffffff1681526020018273ffffffffffffffffffffffffffffffffffffffff1673ffffffffffffffffffffffffffffffffffffffff1681526020019a505050505050505050505060405180910390f35b610353600480360360a081101561028857600080fd5b81019080803590602001906401000000008111156102a557600080fd5b8201836020820111156102b757600080fd5b803590602001918460018302840111640100000000831117156102d957600080fd5b91908080601f016020809104026020016040519081016040528093929190818152602001838380828437600081840152601f19601f820116905080830192505050505050509192919290803590602001909291908035906020019092919080359060200190929190803590602001909291905050506110ea565b005b34801561036157600080fd5b5061036a6111ad565b6040518082815260200191505060405180910390f35b34801561038c57600080fd5b50610450600480360360408110156103a357600080fd5b81019080803590602001906401000000008111156103c057600080fd5b8201836020820111156103d257600080fd5b803590602001918460018302840111640100000000831117156103f457600080fd5b91908080601f016020809104026020016040519081016040528093929190818152602001838380828437600081840152601f19601f8201169050808301925050505050505091929192908035906020019092919050505061130c565b005b6105156004803603604081101561046857600080fd5b810190808035906020019064010000000081111561048557600080fd5b82018360208201111561049757600080fd5b803590602001918460018302840111640100000000831117156104b957600080fd5b91908080601f016020809104026020016040519081016040528093929190818152602001838380828437600081840152601f19601f8201169050808301925050505050505091929192908035906020019092919050505061153d565b005b34801561052357600080fd5b5061052c611ca5565b6040518082815260200191505060405180910390f35b6106056004803603604081101561055857600080fd5b810190808035906020019064010000000081111561057557600080fd5b82018360208201111561058757600080fd5b803590602001918460018302840111640100000000831117156105a957600080fd5b91908080601f016020809104026020016040519081016040528093929190818152602001838380828437600081840152601f19601f82011690508083019250505050505050919291929080359060200190929190505050611e03565b005b6106ca6004803603604081101561061d57600080fd5b810190808035906020019064010000000081111561063a57600080fd5b82018360208201111561064c57600080fd5b8035906020019184600183028401116401000000008311171561066e57600080fd5b91908080601f016020809104026020016040519081016040528093929190818152602001838380828437600081840152601f19601f820116905080830192505050505050509192919290803590602001909291905050506128a5565b005b61078f600480360360408110156106e257600080fd5b81019080803590602001906401000000008111156106ff57600080fd5b82018360208201111561071157600080fd5b8035906020019184600183028401116401000000008311171561073357600080fd5b91908080601f016020809104026020016040519081016040528093929190818152602001838380828437600081840152601f19601f82011690508083019250505050505050919291929080359060200190929190505050612e90565b005b34801561079d57600080fd5b506107ca600480360360208110156107b457600080fd5b8101908080359060200190929190505050613660565b604051808b81526020018a815260200189815260200188815260200187151515158152602001861515151581526020018581526020018481526020018373ffffffffffffffffffffffffffffffffffffffff1673ffffffffffffffffffffffffffffffffffffffff1681526020018273ffffffffffffffffffffffffffffffffffffffff1673ffffffffffffffffffffffffffffffffffffffff1681526020019a505050505050505050505060405180910390f35b6000856040516020018082805190602001908083835b602083106108b85780518252602082019150602081019050602083039250610895565b6001836020036101000a038019825116818451168082178552505050505050905001915050604051602081830303815290604052805190602001209050600554811480610906575060065481145b61095b576040517f08c379a00000000000000000000000000000000000000000000000000000000081526004018080602001828103825260268152602001806139316026913960400191505060405180910390fd5b61096361371b565b600554811415610be1578134146109e2576040517f08c379a00000000000000000000000000000000000000000000000000000000081526004018080602001828103825260208152602001807f496e636f727265637420616d6f756e74206f662045544820737570706c69656481525060200191505060405180910390fd5b6000610a22610a016402540be40060035461373990919063ffffffff16565b610a14858961373990919063ffffffff16565b6137bf90919063ffffffff16565b9050600860405180610140016040528088815260200187815260200186815260200185815260200160001515815260200160001515815260200160088054905081526020018381526020013373ffffffffffffffffffffffffffffffffffffffff168152602001600073ffffffffffffffffffffffffffffffffffffffff1681525090806001815401808255809150506001900390600052602060002090600902016000909190919091506000820151816000015560208201518160010155604082015181600201556060820151816003015560808201518160040160006101000a81548160ff02191690831515021790555060a08201518160040160016101000a81548160ff02191690831515021790555060c0820151816005015560e082015181600601556101008201518160070160006101000a81548173ffffffffffffffffffffffffffffffffffffffff021916908373ffffffffffffffffffffffffffffffffffffffff1602179055506101208201518160080160006101000a81548173ffffffffffffffffffffffffffffffffffffffff021916908373ffffffffffffffffffffffffffffffffffffffff160217905550505050610f6b565b600260009054906101000a900473ffffffffffffffffffffffffffffffffffffffff1673ffffffffffffffffffffffffffffffffffffffff166323b872dd33600760009054906101000a900473ffffffffffffffffffffffffffffffffffffffff16856040518463ffffffff1660e01b8152600401808473ffffffffffffffffffffffffffffffffffffffff1673ffffffffffffffffffffffffffffffffffffffff1681526020018373ffffffffffffffffffffffffffffffffffffffff1673ffffffffffffffffffffffffffffffffffffffff1681526020018281526020019350505050602060405180830381600087803b158015610ce057600080fd5b505af1158015610cf4573d6000803e3d6000fd5b505050506040513d6020811015610d0a57600080fd5b8101908080519060200190929190505050610d70576040517f08c379a000000000000000000000000000000000000000000000000000000000815260040180806020018281038252602181526020018061389e6021913960400191505060405180910390fd5b6000610db0610d8f6402540be40060045461373990919063ffffffff16565b610da2858961373990919063ffffffff16565b6137bf90919063ffffffff16565b9050600960405180610140016040528088815260200187815260200186815260200185815260200160001515815260200160001515815260200160098054905081526020018381526020013373ffffffffffffffffffffffffffffffffffffffff168152602001600073ffffffffffffffffffffffffffffffffffffffff1681525090806001815401808255809150506001900390600052602060002090600902016000909190919091506000820151816000015560208201518160010155604082015181600201556060820151816003015560808201518160040160006101000a81548160ff02191690831515021790555060a08201518160040160016101000a81548160ff02191690831515021790555060c0820151816005015560e082015181600601556101008201518160070160006101000a81548173ffffffffffffffffffffffffffffffffffffffff021916908373ffffffffffffffffffffffffffffffffffffffff1602179055506101208201518160080160006101000a81548173ffffffffffffffffffffffffffffffffffffffff021916908373ffffffffffffffffffffffffffffffffffffffff1602179055505050505b7fbdf8a60a72b7b052f549ff89d6a625a6a291a3bd99f9cd9d3ca71007b07ec1f586868686866040518080602001868152602001858152602001848152602001838152602001828103825287818151815260200191508051906020019080838360005b83811015610fe9578082015181840152602081019050610fce565b50505050905090810190601f1680156110165780820380516001836020036101000a031916815260200191505b50965050505050505060405180910390a1505050505050565b6008818154811061103c57fe5b90600052602060002090600902016000915090508060000154908060010154908060020154908060030154908060040160009054906101000a900460ff16908060040160019054906101000a900460ff16908060050154908060060154908060070160009054906101000a900473ffffffffffffffffffffffffffffffffffffffff16908060080160009054906101000a900473ffffffffffffffffffffffffffffffffffffffff1690508a565b7fbdf8a60a72b7b052f549ff89d6a625a6a291a3bd99f9cd9d3ca71007b07ec1f585858585856040518080602001868152602001858152602001848152602001838152602001828103825287818151815260200191508051906020019080838360005b8381101561116857808201518184015260208101905061114d565b50505050905090810190601f1680156111955780820380516001836020036101000a031916815260200191505b50965050505050505060405180910390a15050505050565b600080600080600080600160009054906101000a900473ffffffffffffffffffffffffffffffffffffffff1673ffffffffffffffffffffffffffffffffffffffff1663feaf968c6040518163ffffffff1660e01b815260040160a06040518083038186803b15801561121e57600080fd5b505afa158015611232573d6000803e3d6000fd5b505050506040513d60a081101561124857600080fd5b8101908080519060200190929190805190602001909291908051906020019092919080519060200190929190805190602001909291905050509450945094509450945060008211611301576040517f08c379a00000000000000000000000000000000000000000000000000000000081526004018080602001828103825260128152602001807f526f756e64206e6f7420636f6d706c657465000000000000000000000000000081525060200191505060405180910390fd5b839550505050505090565b6000826040516020018082805190602001908083835b602083106113455780518252602082019150602081019050602083039250611322565b6001836020036101000a038019825116818451168082178552505050505050905001915050604051602081830303815290604052805190602001209050600554811480611393575060065481145b6113e8576040517f08c379a00000000000000000000000000000000000000000000000000000000081526004018080602001828103825260268152602001806139316026913960400191505060405180910390fd5b6113f061371b565b60055481141561149b576114746114176402540be40060035461373990919063ffffffff16565b6114666008858154811061142757fe5b9060005260206000209060090201600301546008868154811061144657fe5b90600052602060002090600902016000015461373990919063ffffffff16565b6137bf90919063ffffffff16565b6008838154811061148157fe5b906000526020600020906009020160060181905550611538565b6115156114b86402540be40060045461373990919063ffffffff16565b611507600985815481106114c857fe5b906000526020600020906009020160030154600986815481106114e757fe5b90600052602060002090600902016000015461373990919063ffffffff16565b6137bf90919063ffffffff16565b6009838154811061152257fe5b9060005260206000209060090201600601819055505b505050565b6000826040516020018082805190602001908083835b602083106115765780518252602082019150602081019050602083039250611553565b6001836020036101000a0380198251168184511680821785525050505050509050019150506040516020818303038152906040528051906020012090506005548114806115c4575060065481145b611619576040517f08c379a00000000000000000000000000000000000000000000000000000000081526004018080602001828103825260268152602001806139316026913960400191505060405180910390fd5b6005548114156118c2576008828154811061163057fe5b906000526020600020906009020160070160009054906101000a900473ffffffffffffffffffffffffffffffffffffffff1673ffffffffffffffffffffffffffffffffffffffff163373ffffffffffffffffffffffffffffffffffffffff1614611702576040517f08c379a000000000000000000000000000000000000000000000000000000000815260040180806020018281038252601d8152602001807f596f7520646964206e6f742077726974652074686973206f7074696f6e00000081525060200191505060405180910390fd5b426008838154811061171057fe5b9060005260206000209060090201600201541115801561175957506008828154811061173857fe5b906000526020600020906009020160040160009054906101000a900460ff16155b801561178e57506008828154811061176d57fe5b906000526020600020906009020160040160019054906101000a900460ff16155b6117e3576040517f08c379a00000000000000000000000000000000000000000000000000000000081526004018080602001828103825260288152602001806139576028913960400191505060405180910390fd5b600882815481106117f057fe5b906000526020600020906009020160070160009054906101000a900473ffffffffffffffffffffffffffffffffffffffff1673ffffffffffffffffffffffffffffffffffffffff166108fc6008848154811061184857fe5b9060005260206000209060090201600301549081150290604051600060405180830381858888f19350505050158015611885573d6000803e3d6000fd5b5060016008838154811061189557fe5b906000526020600020906009020160040160016101000a81548160ff021916908315150217905550611ca0565b600982815481106118cf57fe5b906000526020600020906009020160070160009054906101000a900473ffffffffffffffffffffffffffffffffffffffff1673ffffffffffffffffffffffffffffffffffffffff163373ffffffffffffffffffffffffffffffffffffffff16146119a1576040517f08c379a000000000000000000000000000000000000000000000000000000000815260040180806020018281038252601d8152602001807f596f7520646964206e6f742077726974652074686973206f7074696f6e00000081525060200191505060405180910390fd5b42600983815481106119af57fe5b906000526020600020906009020160020154111580156119f85750600982815481106119d757fe5b906000526020600020906009020160040160009054906101000a900460ff16155b8015611a2d575060098281548110611a0c57fe5b906000526020600020906009020160040160019054906101000a900460ff16155b611a82576040517f08c379a00000000000000000000000000000000000000000000000000000000081526004018080602001828103825260288152602001806139576028913960400191505060405180910390fd5b600260009054906101000a900473ffffffffffffffffffffffffffffffffffffffff1673ffffffffffffffffffffffffffffffffffffffff166323b872dd3060098581548110611ace57fe5b906000526020600020906009020160070160009054906101000a900473ffffffffffffffffffffffffffffffffffffffff1660098681548110611b0d57fe5b9060005260206000209060090201600301546040518463ffffffff1660e01b8152600401808473ffffffffffffffffffffffffffffffffffffffff1673ffffffffffffffffffffffffffffffffffffffff1681526020018373ffffffffffffffffffffffffffffffffffffffff1673ffffffffffffffffffffffffffffffffffffffff1681526020018281526020019350505050602060405180830381600087803b158015611bbb57600080fd5b505af1158015611bcf573d6000803e3d6000fd5b505050506040513d6020811015611be557600080fd5b8101908080519060200190929190505050611c68576040517f08c379a000000000000000000000000000000000000000000000000000000000815260040180806020018281038252601d8152602001807f496e636f727265637420616d6f756e74206f66204c494e4b2073656e7400000081525060200191505060405180910390fd5b600160098381548110611c7757fe5b906000526020600020906009020160040160016101000a81548160ff0219169083151502179055505b505050565b6000806000806000806000809054906101000a900473ffffffffffffffffffffffffffffffffffffffff1673ffffffffffffffffffffffffffffffffffffffff1663feaf968c6040518163ffffffff1660e01b815260040160a06040518083038186803b158015611d1557600080fd5b505afa158015611d29573d6000803e3d6000fd5b505050506040513d60a0811015611d3f57600080fd5b8101908080519060200190929190805190602001909291908051906020019092919080519060200190929190805190602001909291905050509450945094509450945060008211611df8576040517f08c379a00000000000000000000000000000000000000000000000000000000081526004018080602001828103825260128152602001807f526f756e64206e6f7420636f6d706c657465000000000000000000000000000081525060200191505060405180910390fd5b839550505050505090565b6000826040516020018082805190602001908083835b60208310611e3c5780518252602082019150602081019050602083039250611e19565b6001836020036101000a038019825116818451168082178552505050505050905001915050604051602081830303815290604052805190602001209050600554811480611e8a575060065481145b611edf576040517f08c379a00000000000000000000000000000000000000000000000000000000081526004018080602001828103825260268152602001806139316026913960400191505060405180910390fd5b6005548114156122d8573373ffffffffffffffffffffffffffffffffffffffff1660088381548110611f0d57fe5b906000526020600020906009020160080160009054906101000a900473ffffffffffffffffffffffffffffffffffffffff1673ffffffffffffffffffffffffffffffffffffffff1614611fc8576040517f08c379a000000000000000000000000000000000000000000000000000000000815260040180806020018281038252601a8152602001807f596f7520646f206e6f74206f776e2074686973206f7074696f6e00000000000081525060200191505060405180910390fd5b60088281548110611fd557fe5b906000526020600020906009020160040160009054906101000a900460ff161561204a576040517f08c379a000000000000000000000000000000000000000000000000000000000815260040180806020018281038252602181526020018061397f6021913960400191505060405180910390fd5b426008838154811061205857fe5b906000526020600020906009020160020154116120dd576040517f08c379a00000000000000000000000000000000000000000000000000000000081526004018080602001828103825260118152602001807f4f7074696f6e206973206578706972656400000000000000000000000000000081525060200191505060405180910390fd5b6120e561371b565b6000600883815481106120f457fe5b9060005260206000209060090201600301546008848154811061211357fe5b90600052602060002090600902016000015402905060006121566121476402540be40060035461373990919063ffffffff16565b836137bf90919063ffffffff16565b90508034146121b0576040517f08c379a00000000000000000000000000000000000000000000000000000000081526004018080602001828103825260268152602001806138786026913960400191505060405180910390fd5b600884815481106121bd57fe5b906000526020600020906009020160070160009054906101000a900473ffffffffffffffffffffffffffffffffffffffff1673ffffffffffffffffffffffffffffffffffffffff166108fc829081150290604051600060405180830381858888f19350505050158015612234573d6000803e3d6000fd5b503373ffffffffffffffffffffffffffffffffffffffff166108fc6008868154811061225c57fe5b9060005260206000209060090201600301549081150290604051600060405180830381858888f19350505050158015612299573d6000803e3d6000fd5b506001600885815481106122a957fe5b906000526020600020906009020160040160006101000a81548160ff02191690831515021790555050506128a0565b3373ffffffffffffffffffffffffffffffffffffffff16600983815481106122fc57fe5b906000526020600020906009020160080160009054906101000a900473ffffffffffffffffffffffffffffffffffffffff1673ffffffffffffffffffffffffffffffffffffffff16146123b7576040517f08c379a000000000000000000000000000000000000000000000000000000000815260040180806020018281038252601a8152602001807f596f7520646f206e6f74206f776e2074686973206f7074696f6e00000000000081525060200191505060405180910390fd5b600982815481106123c457fe5b906000526020600020906009020160040160009054906101000a900460ff1615612439576040517f08c379a000000000000000000000000000000000000000000000000000000000815260040180806020018281038252602181526020018061397f6021913960400191505060405180910390fd5b426009838154811061244757fe5b906000526020600020906009020160020154116124cc576040517f08c379a00000000000000000000000000000000000000000000000000000000081526004018080602001828103825260118152602001807f4f7074696f6e206973206578706972656400000000000000000000000000000081525060200191505060405180910390fd5b6124d461371b565b6000600983815481106124e357fe5b9060005260206000209060090201600301546009848154811061250257fe5b90600052602060002090600902016000015402905060006125456125366402540be40060045461373990919063ffffffff16565b836137bf90919063ffffffff16565b9050600260009054906101000a900473ffffffffffffffffffffffffffffffffffffffff1673ffffffffffffffffffffffffffffffffffffffff166323b872dd336009878154811061259357fe5b906000526020600020906009020160070160009054906101000a900473ffffffffffffffffffffffffffffffffffffffff16846040518463ffffffff1660e01b8152600401808473ffffffffffffffffffffffffffffffffffffffff1673ffffffffffffffffffffffffffffffffffffffff1681526020018373ffffffffffffffffffffffffffffffffffffffff1673ffffffffffffffffffffffffffffffffffffffff1681526020018281526020019350505050602060405180830381600087803b15801561266257600080fd5b505af1158015612676573d6000803e3d6000fd5b505050506040513d602081101561268c57600080fd5b81019080805190602001909291905050506126f2576040517f08c379a00000000000000000000000000000000000000000000000000000000081526004018080602001828103825260268152602001806138786026913960400191505060405180910390fd5b600260009054906101000a900473ffffffffffffffffffffffffffffffffffffffff1673ffffffffffffffffffffffffffffffffffffffff1663a9059cbb336009878154811061273e57fe5b9060005260206000209060090201600301546040518363ffffffff1660e01b8152600401808373ffffffffffffffffffffffffffffffffffffffff1673ffffffffffffffffffffffffffffffffffffffff16815260200182815260200192505050602060405180830381600087803b1580156127b957600080fd5b505af11580156127cd573d6000803e3d6000fd5b505050506040513d60208110156127e357600080fd5b8101908080519060200190929190505050612866576040517f08c379a00000000000000000000000000000000000000000000000000000000081526004018080602001828103825260198152602001807f4572726f723a20627579657220776173206e6f7420706169640000000000000081525060200191505060405180910390fd5b60016009858154811061287557fe5b906000526020600020906009020160040160006101000a81548160ff02191690831515021790555050505b505050565b6000826040516020018082805190602001908083835b602083106128de57805182526020820191506020810190506020830392506128bb565b6001836020036101000a03801982511681845116808217855250505050505090500191505060405160208183030381529060405280519060200120905060055481148061292c575060065481145b612981576040517f08c379a00000000000000000000000000000000000000000000000000000000081526004018080602001828103825260268152602001806139316026913960400191505060405180910390fd5b61298961371b565b600554811415612bb957600882815481106129a057fe5b906000526020600020906009020160040160019054906101000a900460ff161580156129e9575042600883815481106129d557fe5b906000526020600020906009020160020154115b612a3e576040517f08c379a000000000000000000000000000000000000000000000000000000000815260040180806020018281038252602f815260200180613849602f913960400191505060405180910390fd5b60088281548110612a4b57fe5b9060005260206000209060090201600101543414612ab4576040517f08c379a00000000000000000000000000000000000000000000000000000000081526004018080602001828103825260288152602001806138e86028913960400191505060405180910390fd5b60088281548110612ac157fe5b906000526020600020906009020160070160009054906101000a900473ffffffffffffffffffffffffffffffffffffffff1673ffffffffffffffffffffffffffffffffffffffff166108fc60088481548110612b1957fe5b9060005260206000209060090201600101549081150290604051600060405180830381858888f19350505050158015612b56573d6000803e3d6000fd5b503360088381548110612b6557fe5b906000526020600020906009020160080160006101000a81548173ffffffffffffffffffffffffffffffffffffffff021916908373ffffffffffffffffffffffffffffffffffffffff160217905550612e8b565b60098281548110612bc657fe5b906000526020600020906009020160040160019054906101000a900460ff16158015612c0f57504260098381548110612bfb57fe5b906000526020600020906009020160020154115b612c64576040517f08c379a000000000000000000000000000000000000000000000000000000000815260040180806020018281038252602f815260200180613849602f913960400191505060405180910390fd5b600260009054906101000a900473ffffffffffffffffffffffffffffffffffffffff1673ffffffffffffffffffffffffffffffffffffffff166323b872dd3360098581548110612cb057fe5b906000526020600020906009020160070160009054906101000a900473ffffffffffffffffffffffffffffffffffffffff1660098681548110612cef57fe5b9060005260206000209060090201600101546040518463ffffffff1660e01b8152600401808473ffffffffffffffffffffffffffffffffffffffff1673ffffffffffffffffffffffffffffffffffffffff1681526020018373ffffffffffffffffffffffffffffffffffffffff1673ffffffffffffffffffffffffffffffffffffffff1681526020018281526020019350505050602060405180830381600087803b158015612d9d57600080fd5b505af1158015612db1573d6000803e3d6000fd5b505050506040513d6020811015612dc757600080fd5b8101908080519060200190929190505050612e2d576040517f08c379a00000000000000000000000000000000000000000000000000000000081526004018080602001828103825260298152602001806138bf6029913960400191505060405180910390fd5b3360098381548110612e3b57fe5b906000526020600020906009020160080160006101000a81548173ffffffffffffffffffffffffffffffffffffffff021916908373ffffffffffffffffffffffffffffffffffffffff1602179055505b505050565b6000826040516020018082805190602001908083835b60208310612ec95780518252602082019150602081019050602083039250612ea6565b6001836020036101000a038019825116818451168082178552505050505050905001915050604051602081830303815290604052805190602001209050600554811480612f17575060065481145b612f6c576040517f08c379a00000000000000000000000000000000000000000000000000000000081526004018080602001828103825260268152602001806139316026913960400191505060405180910390fd5b6005548114156132495760088281548110612f8357fe5b906000526020600020906009020160070160009054906101000a900473ffffffffffffffffffffffffffffffffffffffff1673ffffffffffffffffffffffffffffffffffffffff163373ffffffffffffffffffffffffffffffffffffffff1614613055576040517f08c379a000000000000000000000000000000000000000000000000000000000815260040180806020018281038252601d8152602001807f596f7520646964206e6f742077726974652074686973206f7074696f6e00000081525060200191505060405180910390fd5b6008828154811061306257fe5b906000526020600020906009020160040160019054906101000a900460ff161580156130f85750600073ffffffffffffffffffffffffffffffffffffffff16600883815481106130ae57fe5b906000526020600020906009020160080160009054906101000a900473ffffffffffffffffffffffffffffffffffffffff1673ffffffffffffffffffffffffffffffffffffffff16145b61316a576040517f08c379a000000000000000000000000000000000000000000000000000000000815260040180806020018281038252601e8152602001807f54686973206f7074696f6e2063616e6e6f742062652063616e63656c6564000081525060200191505060405180910390fd5b6008828154811061317757fe5b906000526020600020906009020160070160009054906101000a900473ffffffffffffffffffffffffffffffffffffffff1673ffffffffffffffffffffffffffffffffffffffff166108fc600884815481106131cf57fe5b9060005260206000209060090201600301549081150290604051600060405180830381858888f1935050505015801561320c573d6000803e3d6000fd5b5060016008838154811061321c57fe5b906000526020600020906009020160040160016101000a81548160ff02191690831515021790555061365b565b6009828154811061325657fe5b906000526020600020906009020160070160009054906101000a900473ffffffffffffffffffffffffffffffffffffffff1673ffffffffffffffffffffffffffffffffffffffff163373ffffffffffffffffffffffffffffffffffffffff1614613328576040517f08c379a000000000000000000000000000000000000000000000000000000000815260040180806020018281038252601d8152602001807f596f7520646964206e6f742077726974652074686973206f7074696f6e00000081525060200191505060405180910390fd5b6009828154811061333557fe5b906000526020600020906009020160040160019054906101000a900460ff161580156133cb5750600073ffffffffffffffffffffffffffffffffffffffff166009838154811061338157fe5b906000526020600020906009020160080160009054906101000a900473ffffffffffffffffffffffffffffffffffffffff1673ffffffffffffffffffffffffffffffffffffffff16145b61343d576040517f08c379a000000000000000000000000000000000000000000000000000000000815260040180806020018281038252601e8152602001807f54686973206f7074696f6e2063616e6e6f742062652063616e63656c6564000081525060200191505060405180910390fd5b600260009054906101000a900473ffffffffffffffffffffffffffffffffffffffff1673ffffffffffffffffffffffffffffffffffffffff166323b872dd306009858154811061348957fe5b906000526020600020906009020160070160009054906101000a900473ffffffffffffffffffffffffffffffffffffffff16600986815481106134c857fe5b9060005260206000209060090201600301546040518463ffffffff1660e01b8152600401808473ffffffffffffffffffffffffffffffffffffffff1673ffffffffffffffffffffffffffffffffffffffff1681526020018373ffffffffffffffffffffffffffffffffffffffff1673ffffffffffffffffffffffffffffffffffffffff1681526020018281526020019350505050602060405180830381600087803b15801561357657600080fd5b505af115801561358a573d6000803e3d6000fd5b505050506040513d60208110156135a057600080fd5b8101908080519060200190929190505050613623576040517f08c379a000000000000000000000000000000000000000000000000000000000815260040180806020018281038252601d8152602001807f496e636f727265637420616d6f756e74206f66204c494e4b2073656e7400000081525060200191505060405180910390fd5b60016009838154811061363257fe5b906000526020600020906009020160040160016101000a81548160ff0219169083151502179055505b505050565b6009818154811061366d57fe5b90600052602060002090600902016000915090508060000154908060010154908060020154908060030154908060040160009054906101000a900460ff16908060040160019054906101000a900460ff16908060050154908060060154908060070160009054906101000a900473ffffffffffffffffffffffffffffffffffffffff16908060080160009054906101000a900473ffffffffffffffffffffffffffffffffffffffff1690508a565b613723611ca5565b6003819055506137316111ad565b600481905550565b60008083141561374c57600090506137b9565b600082840290508284828161375d57fe5b04146137b4576040517f08c379a00000000000000000000000000000000000000000000000000000000081526004018080602001828103825260218152602001806139106021913960400191505060405180910390fd5b809150505b92915050565b6000808211613836576040517f08c379a000000000000000000000000000000000000000000000000000000000815260040180806020018281038252601a8152602001807f536166654d6174683a206469766973696f6e206279207a65726f00000000000081525060200191505060405180910390fd5b81838161383f57fe5b0490509291505056fe4f7074696f6e2069732063616e63656c65642f6578706972656420616e642063616e6e6f7420626520626f75676874496e636f7272656374204c494e4b20616d6f756e742073656e7420746f206578657263697365496e636f727265637420616d6f756e74206f66204c494e4b20737570706c696564496e636f727265637420616d6f756e74206f66204c494e4b2073656e7420666f72207072656d69756d496e636f727265637420616d6f756e74206f66204554482073656e7420666f72207072656d69756d536166654d6174683a206d756c7469706c69636174696f6e206f766572666c6f774f6e6c792045544820616e64204c494e4b20746f6b656e732061726520737570706f7274656454686973206f7074696f6e206973206e6f7420656c696769626c6520666f722077697468647261774f7074696f6e2068617320616c7265616479206265656e20657865726369736564a2646970667358221220e255aba02b05ac9f2b78b4833cedca228112aab8f2a8835d1b080c9609346cf164736f6c63430006070033",
  "linkReferences": {},
  "deployedLinkReferences": {}
}